{
  "contractName": "Purchase",
  "abi": [
    {
      "constant": true,
      "inputs": [],
      "name": "seller",
      "outputs": [
        {
          "name": "",
          "type": "address"
        }
      ],
      "payable": false,
      "stateMutability": "view",
      "type": "function"
    },
    {
      "constant": true,
      "inputs": [],
      "name": "value",
      "outputs": [
        {
          "name": "",
          "type": "uint256"
        }
      ],
      "payable": false,
      "stateMutability": "view",
      "type": "function"
    },
    {
      "constant": true,
      "inputs": [],
      "name": "buyer",
      "outputs": [
        {
          "name": "",
          "type": "address"
        }
      ],
      "payable": false,
      "stateMutability": "view",
      "type": "function"
    },
    {
      "constant": true,
      "inputs": [],
      "name": "state",
      "outputs": [
        {
          "name": "",
          "type": "uint8"
        }
      ],
      "payable": false,
      "stateMutability": "view",
      "type": "function"
    },
    {
      "inputs": [],
      "payable": true,
      "stateMutability": "payable",
      "type": "constructor"
    },
    {
      "anonymous": false,
      "inputs": [],
      "name": "Aborted",
      "type": "event"
    },
    {
      "anonymous": false,
      "inputs": [],
      "name": "PurchaseConfirmed",
      "type": "event"
    },
    {
      "anonymous": false,
      "inputs": [],
      "name": "ItemReceived",
      "type": "event"
    },
    {
      "constant": false,
      "inputs": [],
      "name": "abort",
      "outputs": [],
      "payable": false,
      "stateMutability": "nonpayable",
      "type": "function"
    },
    {
      "constant": false,
      "inputs": [],
      "name": "confirmPurchase",
      "outputs": [],
      "payable": true,
      "stateMutability": "payable",
      "type": "function"
    },
    {
      "constant": false,
      "inputs": [],
      "name": "confirmReceived",
      "outputs": [],
      "payable": false,
      "stateMutability": "nonpayable",
      "type": "function"
    }
  ],
  "bytecode": "0x608060405233600160006101000a81548173ffffffffffffffffffffffffffffffffffffffff021916908373ffffffffffffffffffffffffffffffffffffffff1602179055506002348161004f57fe5b0460008190555034600054600202146100d0576040517f08c379a00000000000000000000000000000000000000000000000000000000081526004018080602001828103825260158152602001807f56616c75652068617320746f206265206576656e2e000000000000000000000081525060200191505060405180910390fd5b610860806100df6000396000f3fe6080604052600436106100705760003560e01c80637150d8ae1161004e5780637150d8ae1461010e57806373fac6f014610165578063c19d93fb1461017c578063d6960697146101b557610070565b806308551a531461007557806335a063b4146100cc5780633fa4f245146100e3575b600080fd5b34801561008157600080fd5b5061008a6101bf565b604051808273ffffffffffffffffffffffffffffffffffffffff1673ffffffffffffffffffffffffffffffffffffffff16815260200191505060405180910390f35b3480156100d857600080fd5b506100e16101e5565b005b3480156100ef57600080fd5b506100f8610416565b6040518082815260200191505060405180910390f35b34801561011a57600080fd5b5061012361041c565b604051808273ffffffffffffffffffffffffffffffffffffffff1673ffffffffffffffffffffffffffffffffffffffff16815260200191505060405180910390f35b34801561017157600080fd5b5061017a610442565b005b34801561018857600080fd5b506101916106de565b604051808260028111156101a157fe5b60ff16815260200191505060405180910390f35b6101bd6106f1565b005b600160009054906101000a900473ffffffffffffffffffffffffffffffffffffffff1681565b600160009054906101000a900473ffffffffffffffffffffffffffffffffffffffff1673ffffffffffffffffffffffffffffffffffffffff163373ffffffffffffffffffffffffffffffffffffffff16146102a8576040517f08c379a000000000000000000000000000000000000000000000000000000000815260040180806020018281038252601a8152602001807f4f6e6c792073656c6c65722063616e2063616c6c20746869732e00000000000081525060200191505060405180910390fd5b60008060028111156102b657fe5b600260149054906101000a900460ff1660028111156102d157fe5b14610344576040517f08c379a000000000000000000000000000000000000000000000000000000000815260040180806020018281038252600e8152602001807f496e76616c69642073746174652e00000000000000000000000000000000000081525060200191505060405180910390fd5b7f72c874aeff0b183a56e2b79c71b46e1aed4dee5e09862134b8821ba2fddbf8bf60405160405180910390a160028060146101000a81548160ff0219169083600281111561038e57fe5b0217905550600160009054906101000a900473ffffffffffffffffffffffffffffffffffffffff1673ffffffffffffffffffffffffffffffffffffffff166108fc3073ffffffffffffffffffffffffffffffffffffffff16319081150290604051600060405180830381858888f19350505050158015610412573d6000803e3d6000fd5b5050565b60005481565b600260009054906101000a900473ffffffffffffffffffffffffffffffffffffffff1681565b600260009054906101000a900473ffffffffffffffffffffffffffffffffffffffff1673ffffffffffffffffffffffffffffffffffffffff163373ffffffffffffffffffffffffffffffffffffffff1614610505576040517f08c379a00000000000000000000000000000000000000000000000000000000081526004018080602001828103825260198152602001807f4f6e6c792062757965722063616e2063616c6c20746869732e0000000000000081525060200191505060405180910390fd5b600180600281111561051357fe5b600260149054906101000a900460ff16600281111561052e57fe5b146105a1576040517f08c379a000000000000000000000000000000000000000000000000000000000815260040180806020018281038252600e8152602001807f496e76616c69642073746174652e00000000000000000000000000000000000081525060200191505060405180910390fd5b7fe89152acd703c9d8c7d28829d443260b411454d45394e7995815140c8cbcbcf760405160405180910390a160028060146101000a81548160ff021916908360028111156105eb57fe5b0217905550600260009054906101000a900473ffffffffffffffffffffffffffffffffffffffff1673ffffffffffffffffffffffffffffffffffffffff166108fc6000549081150290604051600060405180830381858888f1935050505015801561065a573d6000803e3d6000fd5b50600160009054906101000a900473ffffffffffffffffffffffffffffffffffffffff1673ffffffffffffffffffffffffffffffffffffffff166108fc3073ffffffffffffffffffffffffffffffffffffffff16319081150290604051600060405180830381858888f193505050501580156106da573d6000803e3d6000fd5b5050565b600260149054906101000a900460ff1681565b60008060028111156106ff57fe5b600260149054906101000a900460ff16600281111561071a57fe5b1461078d576040517f08c379a000000000000000000000000000000000000000000000000000000000815260040180806020018281038252600e8152602001807f496e76616c69642073746174652e00000000000000000000000000000000000081525060200191505060405180910390fd5b60005460020234148061079f57600080fd5b7fd5d55c8a68912e9a110618df8d5e2e83b8d83211c57a8ddd1203df92885dc88160405160405180910390a133600260006101000a81548173ffffffffffffffffffffffffffffffffffffffff021916908373ffffffffffffffffffffffffffffffffffffffff1602179055506001600260146101000a81548160ff0219169083600281111561082b57fe5b0217905550505056fea165627a7a723058209aedebf0820b5d3f70318fbfd48cf5aabf6e4567874fd71a187fb04d23431c360029",
  "source": "pragma solidity >=0.4.22 <0.7.0;\n\ncontract Purchase {\n    uint public value;\n    address payable public seller;\n    address payable public buyer;\n    enum State { Created, Locked, Inactive }\n    // The state variable has a default value of the first member, `State.created`\n    State public state;\n\n    // Ensure that `msg.value` is an even number.\n    // Division will truncate if it is an odd number.\n    // Check via multiplication that it wasn't an odd number.\n    constructor() public payable {\n        seller = msg.sender;\n        value = msg.value / 2;\n        require((2 * value) == msg.value, \"Value has to be even.\");\n    }\n\n    modifier condition(bool _condition) {\n        require(_condition);\n        _;\n    }\n\n    modifier onlyBuyer() {\n        require(\n            msg.sender == buyer,\n            \"Only buyer can call this.\"\n        );\n        _;\n    }\n\n    modifier onlySeller() {\n        require(\n            msg.sender == seller,\n            \"Only seller can call this.\"\n        );\n        _;\n    }\n\n    modifier inState(State _state) {\n        require(\n            state == _state,\n            \"Invalid state.\"\n        );\n        _;\n    }\n\n    event Aborted();\n    event PurchaseConfirmed();\n    event ItemReceived();\n\n    /// Abort the purchase and reclaim the ether.\n    /// Can only be called by the seller before\n    /// the contract is locked.\n    function abort()\n        public\n        onlySeller\n        inState(State.Created)\n    {\n        emit Aborted();\n        state = State.Inactive;\n        seller.transfer(address(this).balance);\n    }\n\n    /// Confirm the purchase as buyer.\n    /// Transaction has to include `2 * value` ether.\n    /// The ether will be locked until confirmReceived\n    /// is called.\n    function confirmPurchase()\n        public\n        inState(State.Created)\n        condition(msg.value == (2 * value))\n        payable\n    {\n        emit PurchaseConfirmed();\n        buyer = msg.sender;\n        state = State.Locked;\n    }\n\n    /// Confirm that you (the buyer) received the item.\n    /// This will release the locked ether.\n    function confirmReceived()\n        public\n        onlyBuyer\n        inState(State.Locked)\n    {\n        emit ItemReceived();\n        // It is important to change the state first because\n        // otherwise, the contracts called using `send` below\n        // can call in again here.\n        state = State.Inactive;\n\n        // NOTE: This actually allows both the buyer and the seller to\n        // block the refund - the withdraw pattern should be used.\n\n        buyer.transfer(value);\n        seller.transfer(address(this).balance);\n    }\n}",
  "sourcePath": "/Users/denis/Documents/_Studyspace/Solidity/contracts/Purchase.sol",
  "compiler": {
    "name": "solc",
    "version": "0.5.8+commit.23d335f2.Emscripten.clang"
  },
  "schemaVersion": "3.0.16",
  "updatedAt": "2019-10-08T08:21:51.458Z",
  "devdoc": {
    "methods": {}
  },
  "userdoc": {
    "methods": {
      "abort()": {
        "notice": "Abort the purchase and reclaim the ether. Can only be called by the seller before the contract is locked."
      },
      "confirmPurchase()": {
        "notice": "Confirm the purchase as buyer. Transaction has to include `2 * value` ether. The ether will be locked until confirmReceived is called."
      },
      "confirmReceived()": {
        "notice": "Confirm that you (the buyer) received the item. This will release the locked ether."
      }
    }
  }
}