{
  "contractName": "SimpleAuction",
  "abi": [
    {
      "constant": true,
      "inputs": [],
      "name": "beneficiary",
      "outputs": [
        {
          "name": "",
          "type": "address"
        }
      ],
      "payable": false,
      "stateMutability": "view",
      "type": "function"
    },
    {
      "constant": true,
      "inputs": [],
      "name": "auctionEndTime",
      "outputs": [
        {
          "name": "",
          "type": "uint256"
        }
      ],
      "payable": false,
      "stateMutability": "view",
      "type": "function"
    },
    {
      "constant": true,
      "inputs": [],
      "name": "highestBidder",
      "outputs": [
        {
          "name": "",
          "type": "address"
        }
      ],
      "payable": false,
      "stateMutability": "view",
      "type": "function"
    },
    {
      "constant": true,
      "inputs": [],
      "name": "highestBid",
      "outputs": [
        {
          "name": "",
          "type": "uint256"
        }
      ],
      "payable": false,
      "stateMutability": "view",
      "type": "function"
    },
    {
      "inputs": [
        {
          "name": "_biddingTime",
          "type": "uint256"
        },
        {
          "name": "_beneficiary",
          "type": "address"
        }
      ],
      "payable": false,
      "stateMutability": "nonpayable",
      "type": "constructor"
    },
    {
      "anonymous": false,
      "inputs": [
        {
          "indexed": false,
          "name": "bidder",
          "type": "address"
        },
        {
          "indexed": false,
          "name": "amount",
          "type": "uint256"
        }
      ],
      "name": "HighestBidIncreased",
      "type": "event"
    },
    {
      "anonymous": false,
      "inputs": [
        {
          "indexed": false,
          "name": "winner",
          "type": "address"
        },
        {
          "indexed": false,
          "name": "amount",
          "type": "uint256"
        }
      ],
      "name": "AuctionEnded",
      "type": "event"
    },
    {
      "constant": false,
      "inputs": [],
      "name": "bid",
      "outputs": [],
      "payable": true,
      "stateMutability": "payable",
      "type": "function"
    },
    {
      "constant": false,
      "inputs": [],
      "name": "withdraw",
      "outputs": [
        {
          "name": "",
          "type": "bool"
        }
      ],
      "payable": false,
      "stateMutability": "nonpayable",
      "type": "function"
    },
    {
      "constant": false,
      "inputs": [],
      "name": "auctionEnd",
      "outputs": [],
      "payable": false,
      "stateMutability": "nonpayable",
      "type": "function"
    }
  ],
  "bytecode": "0x608060405234801561001057600080fd5b5060405160408061084c8339810180604052604081101561003057600080fd5b810190808051906020019092919080519060200190929190505050806000806101000a81548173ffffffffffffffffffffffffffffffffffffffff021916908373ffffffffffffffffffffffffffffffffffffffff16021790555081420160018190555050506107a7806100a56000396000f3fe6080604052600436106100705760003560e01c80633ccfd60b1161004e5780633ccfd60b146100ed5780634b449cba1461011c57806391f9015714610147578063d57bde791461019e57610070565b80631998aeef146100755780632a24f46c1461007f57806338af3eed14610096575b600080fd5b61007d6101c9565b005b34801561008b57600080fd5b506100946103e9565b005b3480156100a257600080fd5b506100ab6105dd565b604051808273ffffffffffffffffffffffffffffffffffffffff1673ffffffffffffffffffffffffffffffffffffffff16815260200191505060405180910390f35b3480156100f957600080fd5b50610102610602565b604051808215151515815260200191505060405180910390f35b34801561012857600080fd5b50610131610726565b6040518082815260200191505060405180910390f35b34801561015357600080fd5b5061015c61072c565b604051808273ffffffffffffffffffffffffffffffffffffffff1673ffffffffffffffffffffffffffffffffffffffff16815260200191505060405180910390f35b3480156101aa57600080fd5b506101b3610752565b6040518082815260200191505060405180910390f35b600154421115610241576040517f08c379a00000000000000000000000000000000000000000000000000000000081526004018080602001828103825260168152602001807f41756374696f6e20616c726561647920656e6465642e0000000000000000000081525060200191505060405180910390fd5b60035434116102b8576040517f08c379a000000000000000000000000000000000000000000000000000000000815260040180806020018281038252601e8152602001807f546865726520616c7265616479206973206120686967686572206269642e000081525060200191505060405180910390fd5b6000600354146103345760035460046000600260009054906101000a900473ffffffffffffffffffffffffffffffffffffffff1673ffffffffffffffffffffffffffffffffffffffff1673ffffffffffffffffffffffffffffffffffffffff168152602001908152602001600020600082825401925050819055505b33600260006101000a81548173ffffffffffffffffffffffffffffffffffffffff021916908373ffffffffffffffffffffffffffffffffffffffff160217905550346003819055507ff4757a49b326036464bec6fe419a4ae38c8a02ce3e68bf0809674f6aab8ad3003334604051808373ffffffffffffffffffffffffffffffffffffffff1673ffffffffffffffffffffffffffffffffffffffff1681526020018281526020019250505060405180910390a1565b600154421015610461576040517f08c379a00000000000000000000000000000000000000000000000000000000081526004018080602001828103825260168152602001807f41756374696f6e206e6f742079657420656e6465642e0000000000000000000081525060200191505060405180910390fd5b600560009054906101000a900460ff16156104c7576040517f08c379a00000000000000000000000000000000000000000000000000000000081526004018080602001828103825260238152602001806107596023913960400191505060405180910390fd5b6001600560006101000a81548160ff0219169083151502179055507fdaec4582d5d9595688c8c98545fdd1c696d41c6aeaeb636737e84ed2f5c00eda600260009054906101000a900473ffffffffffffffffffffffffffffffffffffffff16600354604051808373ffffffffffffffffffffffffffffffffffffffff1673ffffffffffffffffffffffffffffffffffffffff1681526020018281526020019250505060405180910390a16000809054906101000a900473ffffffffffffffffffffffffffffffffffffffff1673ffffffffffffffffffffffffffffffffffffffff166108fc6003549081150290604051600060405180830381858888f193505050501580156105da573d6000803e3d6000fd5b50565b6000809054906101000a900473ffffffffffffffffffffffffffffffffffffffff1681565b600080600460003373ffffffffffffffffffffffffffffffffffffffff1673ffffffffffffffffffffffffffffffffffffffff168152602001908152602001600020549050600081111561071d576000600460003373ffffffffffffffffffffffffffffffffffffffff1673ffffffffffffffffffffffffffffffffffffffff168152602001908152602001600020819055503373ffffffffffffffffffffffffffffffffffffffff166108fc829081150290604051600060405180830381858888f1935050505061071c5780600460003373ffffffffffffffffffffffffffffffffffffffff1673ffffffffffffffffffffffffffffffffffffffff168152602001908152602001600020819055506000915050610723565b5b60019150505b90565b60015481565b600260009054906101000a900473ffffffffffffffffffffffffffffffffffffffff1681565b6003548156fe61756374696f6e456e642068617320616c7265616479206265656e2063616c6c65642ea165627a7a723058203f7c71b7b0798a028d1bb087651ce04d61f86e2b735b5320ad3568578c7625c60029",
  "source": "pragma solidity >=0.4.22 <0.7.0;\n\ncontract SimpleAuction {\n    // Parameters of the auction. Times are either\n    // absolute unix timestamps (seconds since 1970-01-01)\n    // or time periods in seconds.\n    address payable public beneficiary;\n    uint public auctionEndTime;\n\n    // Current state of the auction.\n    address public highestBidder;\n    uint public highestBid;\n\n    // Allowed withdrawals of previous bids\n    mapping(address => uint) pendingReturns;\n\n    // Set to true at the end, disallows any change.\n    // By default initialized to `false`.\n    bool ended;\n\n    // Events that will be emitted on changes.\n    event HighestBidIncreased(address bidder, uint amount);\n    event AuctionEnded(address winner, uint amount);\n\n    // The following is a so-called natspec comment,\n    // recognizable by the three slashes.\n    // It will be shown when the user is asked to\n    // confirm a transaction.\n\n    /// Create a simple auction with `_biddingTime`\n    /// seconds bidding time on behalf of the\n    /// beneficiary address `_beneficiary`.\n    constructor(\n        uint _biddingTime,\n        address payable _beneficiary\n    ) public {\n        beneficiary = _beneficiary;\n        auctionEndTime = now + _biddingTime;\n    }\n\n    /// Bid on the auction with the value sent\n    /// together with this transaction.\n    /// The value will only be refunded if the\n    /// auction is not won.\n    function bid() public payable {\n        // No arguments are necessary, all\n        // information is already part of\n        // the transaction. The keyword payable\n        // is required for the function to\n        // be able to receive Ether.\n\n        // Revert the call if the bidding\n        // period is over.\n        require(\n            now <= auctionEndTime,\n            \"Auction already ended.\"\n        );\n\n        // If the bid is not higher, send the\n        // money back.\n        require(\n            msg.value > highestBid,\n            \"There already is a higher bid.\"\n        );\n\n        if (highestBid != 0) {\n            // Sending back the money by simply using\n            // highestBidder.send(highestBid) is a security risk\n            // because it could execute an untrusted contract.\n            // It is always safer to let the recipients\n            // withdraw their money themselves.\n            pendingReturns[highestBidder] += highestBid;\n        }\n        highestBidder = msg.sender;\n        highestBid = msg.value;\n        emit HighestBidIncreased(msg.sender, msg.value);\n    }\n\n    /// Withdraw a bid that was overbid.\n    function withdraw() public returns (bool) {\n        uint amount = pendingReturns[msg.sender];\n        if (amount > 0) {\n            // It is important to set this to zero because the recipient\n            // can call this function again as part of the receiving call\n            // before `send` returns.\n            pendingReturns[msg.sender] = 0;\n\n            if (!msg.sender.send(amount)) {\n                // No need to call throw here, just reset the amount owing\n                pendingReturns[msg.sender] = amount;\n                return false;\n            }\n        }\n        return true;\n    }\n\n    /// End the auction and send the highest bid\n    /// to the beneficiary.\n    function auctionEnd() public {\n        // It is a good guideline to structure functions that interact\n        // with other contracts (i.e. they call functions or send Ether)\n        // into three phases:\n        // 1. checking conditions\n        // 2. performing actions (potentially changing conditions)\n        // 3. interacting with other contracts\n        // If these phases are mixed up, the other contract could call\n        // back into the current contract and modify the state or cause\n        // effects (ether payout) to be performed multiple times.\n        // If functions called internally include interaction with external\n        // contracts, they also have to be considered interaction with\n        // external contracts.\n\n        // 1. Conditions\n        require(now >= auctionEndTime, \"Auction not yet ended.\");\n        require(!ended, \"auctionEnd has already been called.\");\n\n        // 2. Effects\n        ended = true;\n        emit AuctionEnded(highestBidder, highestBid);\n\n        // 3. Interaction\n        beneficiary.transfer(highestBid);\n    }\n}",
  "sourcePath": "/Users/denis/Documents/_Studyspace/Solidity/contracts/SimpleAuction.sol",
  "compiler": {
    "name": "solc",
    "version": "0.5.8+commit.23d335f2.Emscripten.clang"
  },
  "schemaVersion": "3.0.16",
  "updatedAt": "2019-10-08T08:21:24.302Z",
  "devdoc": {
    "methods": {}
  },
  "userdoc": {
    "methods": {
      "auctionEnd()": {
        "notice": "End the auction and send the highest bid to the beneficiary."
      },
      "bid()": {
        "notice": "Bid on the auction with the value sent together with this transaction. The value will only be refunded if the auction is not won."
      },
      "constructor": "Create a simple auction with `_biddingTime` seconds bidding time on behalf of the beneficiary address `_beneficiary`.",
      "withdraw()": {
        "notice": "Withdraw a bid that was overbid."
      }
    }
  }
}